{
  "contractName": "SupplyChain",
  "abi": [
    {
      "inputs": [],
      "stateMutability": "payable",
      "type": "constructor",
      "payable": true
    },
    {
      "anonymous": false,
      "inputs": [
        {
          "indexed": true,
          "internalType": "address",
          "name": "account",
          "type": "address"
        }
      ],
      "name": "CompanyAdded",
      "type": "event"
    },
    {
      "anonymous": false,
      "inputs": [
        {
          "indexed": true,
          "internalType": "address",
          "name": "account",
          "type": "address"
        }
      ],
      "name": "CompanyRemoved",
      "type": "event"
    },
    {
      "anonymous": false,
      "inputs": [
        {
          "indexed": true,
          "internalType": "address",
          "name": "account",
          "type": "address"
        }
      ],
      "name": "CustomerAdded",
      "type": "event"
    },
    {
      "anonymous": false,
      "inputs": [
        {
          "indexed": true,
          "internalType": "address",
          "name": "account",
          "type": "address"
        }
      ],
      "name": "CustomerRemoved",
      "type": "event"
    },
    {
      "anonymous": false,
      "inputs": [
        {
          "indexed": false,
          "internalType": "uint256",
          "name": "cakeID",
          "type": "uint256"
        }
      ],
      "name": "NewAvailableCake",
      "type": "event"
    },
    {
      "anonymous": false,
      "inputs": [
        {
          "indexed": false,
          "internalType": "uint256",
          "name": "orderID",
          "type": "uint256"
        }
      ],
      "name": "OrderCreated",
      "type": "event"
    },
    {
      "anonymous": false,
      "inputs": [
        {
          "indexed": false,
          "internalType": "uint256",
          "name": "orderID",
          "type": "uint256"
        }
      ],
      "name": "OrderDelivered",
      "type": "event"
    },
    {
      "anonymous": false,
      "inputs": [
        {
          "indexed": false,
          "internalType": "uint256",
          "name": "orderID",
          "type": "uint256"
        }
      ],
      "name": "OrderOngoing",
      "type": "event"
    },
    {
      "anonymous": false,
      "inputs": [
        {
          "indexed": false,
          "internalType": "uint256",
          "name": "orderID",
          "type": "uint256"
        }
      ],
      "name": "OrderReadyForPickup",
      "type": "event"
    },
    {
      "anonymous": false,
      "inputs": [
        {
          "indexed": true,
          "internalType": "address",
          "name": "oldOwner",
          "type": "address"
        },
        {
          "indexed": true,
          "internalType": "address",
          "name": "newOwner",
          "type": "address"
        }
      ],
      "name": "TransferOwnership",
      "type": "event"
    },
    {
      "inputs": [
        {
          "internalType": "address",
          "name": "account",
          "type": "address"
        }
      ],
      "name": "addCompany",
      "outputs": [],
      "stateMutability": "nonpayable",
      "type": "function"
    },
    {
      "inputs": [
        {
          "internalType": "address",
          "name": "account",
          "type": "address"
        }
      ],
      "name": "addCustomer",
      "outputs": [],
      "stateMutability": "nonpayable",
      "type": "function"
    },
    {
      "inputs": [
        {
          "internalType": "address",
          "name": "account",
          "type": "address"
        }
      ],
      "name": "isCompany",
      "outputs": [
        {
          "internalType": "bool",
          "name": "",
          "type": "bool"
        }
      ],
      "stateMutability": "view",
      "type": "function",
      "constant": true
    },
    {
      "inputs": [
        {
          "internalType": "address",
          "name": "account",
          "type": "address"
        }
      ],
      "name": "isCustomer",
      "outputs": [
        {
          "internalType": "bool",
          "name": "",
          "type": "bool"
        }
      ],
      "stateMutability": "view",
      "type": "function",
      "constant": true
    },
    {
      "inputs": [],
      "name": "isOwner",
      "outputs": [
        {
          "internalType": "bool",
          "name": "",
          "type": "bool"
        }
      ],
      "stateMutability": "view",
      "type": "function",
      "constant": true
    },
    {
      "inputs": [],
      "name": "owner",
      "outputs": [
        {
          "internalType": "address",
          "name": "",
          "type": "address"
        }
      ],
      "stateMutability": "view",
      "type": "function",
      "constant": true
    },
    {
      "inputs": [],
      "name": "renounceCompany",
      "outputs": [],
      "stateMutability": "nonpayable",
      "type": "function"
    },
    {
      "inputs": [],
      "name": "renounceCustomer",
      "outputs": [],
      "stateMutability": "nonpayable",
      "type": "function"
    },
    {
      "inputs": [],
      "name": "renounceOwnership",
      "outputs": [],
      "stateMutability": "nonpayable",
      "type": "function"
    },
    {
      "inputs": [
        {
          "internalType": "address",
          "name": "newOwner",
          "type": "address"
        }
      ],
      "name": "transferOwnership",
      "outputs": [],
      "stateMutability": "nonpayable",
      "type": "function"
    },
    {
      "inputs": [],
      "name": "kill",
      "outputs": [],
      "stateMutability": "nonpayable",
      "type": "function"
    },
    {
      "inputs": [
        {
          "internalType": "string",
          "name": "_cakeName",
          "type": "string"
        },
        {
          "internalType": "uint256",
          "name": "_cakePrice",
          "type": "uint256"
        },
        {
          "internalType": "bool",
          "name": "_onSale",
          "type": "bool"
        },
        {
          "internalType": "string",
          "name": "_imageUrl",
          "type": "string"
        }
      ],
      "name": "addAvailableCake",
      "outputs": [],
      "stateMutability": "nonpayable",
      "type": "function"
    },
    {
      "inputs": [
        {
          "internalType": "uint256",
          "name": "_cakeID",
          "type": "uint256"
        },
        {
          "internalType": "bool",
          "name": "_onSale",
          "type": "bool"
        }
      ],
      "name": "toggleCakeOnSale",
      "outputs": [],
      "stateMutability": "nonpayable",
      "type": "function"
    },
    {
      "inputs": [
        {
          "internalType": "uint256",
          "name": "_cakeID",
          "type": "uint256"
        },
        {
          "internalType": "uint256",
          "name": "_quantity",
          "type": "uint256"
        }
      ],
      "name": "makeOrder",
      "outputs": [],
      "stateMutability": "payable",
      "type": "function",
      "payable": true
    },
    {
      "inputs": [
        {
          "internalType": "uint256",
          "name": "_orderID",
          "type": "uint256"
        }
      ],
      "name": "startBakingCake",
      "outputs": [],
      "stateMutability": "nonpayable",
      "type": "function"
    },
    {
      "inputs": [
        {
          "internalType": "uint256",
          "name": "_orderID",
          "type": "uint256"
        }
      ],
      "name": "prepareForPickup",
      "outputs": [],
      "stateMutability": "nonpayable",
      "type": "function"
    },
    {
      "inputs": [
        {
          "internalType": "uint256",
          "name": "_orderID",
          "type": "uint256"
        }
      ],
      "name": "pickupCake",
      "outputs": [],
      "stateMutability": "nonpayable",
      "type": "function"
    },
    {
      "inputs": [
        {
          "internalType": "uint256",
          "name": "_cakeID",
          "type": "uint256"
        }
      ],
      "name": "fetchCake",
      "outputs": [
        {
          "internalType": "uint256",
          "name": "cakeID",
          "type": "uint256"
        },
        {
          "internalType": "address",
          "name": "ownerID",
          "type": "address"
        },
        {
          "internalType": "address",
          "name": "companyID",
          "type": "address"
        },
        {
          "internalType": "string",
          "name": "cakeName",
          "type": "string"
        },
        {
          "internalType": "uint256",
          "name": "cakePrice",
          "type": "uint256"
        },
        {
          "internalType": "bool",
          "name": "onSale",
          "type": "bool"
        },
        {
          "internalType": "string",
          "name": "imageUrl",
          "type": "string"
        }
      ],
      "stateMutability": "view",
      "type": "function",
      "constant": true
    },
    {
      "inputs": [],
      "name": "fetchAllCakeIDs",
      "outputs": [
        {
          "internalType": "uint256[]",
          "name": "",
          "type": "uint256[]"
        }
      ],
      "stateMutability": "view",
      "type": "function",
      "constant": true
    },
    {
      "inputs": [],
      "name": "fetchCompanyCakes",
      "outputs": [
        {
          "internalType": "uint256[]",
          "name": "",
          "type": "uint256[]"
        }
      ],
      "stateMutability": "view",
      "type": "function",
      "constant": true
    },
    {
      "inputs": [
        {
          "internalType": "uint256",
          "name": "_orderID",
          "type": "uint256"
        }
      ],
      "name": "fetchOrder",
      "outputs": [
        {
          "internalType": "uint256",
          "name": "orderID",
          "type": "uint256"
        },
        {
          "internalType": "address",
          "name": "ownerID",
          "type": "address"
        },
        {
          "internalType": "uint256",
          "name": "cakeID",
          "type": "uint256"
        },
        {
          "internalType": "string",
          "name": "cakeName",
          "type": "string"
        },
        {
          "internalType": "uint256",
          "name": "quantity",
          "type": "uint256"
        },
        {
          "internalType": "uint256",
          "name": "cakePrice",
          "type": "uint256"
        },
        {
          "internalType": "uint256",
          "name": "totalPrice",
          "type": "uint256"
        },
        {
          "internalType": "string",
          "name": "orderState",
          "type": "string"
        },
        {
          "internalType": "address",
          "name": "companyID",
          "type": "address"
        },
        {
          "internalType": "address",
          "name": "customerID",
          "type": "address"
        },
        {
          "internalType": "bool",
          "name": "paid",
          "type": "bool"
        }
      ],
      "stateMutability": "view",
      "type": "function",
      "constant": true
    },
    {
      "inputs": [],
      "name": "fetchCustomerOrders",
      "outputs": [
        {
          "internalType": "uint256[]",
          "name": "",
          "type": "uint256[]"
        }
      ],
      "stateMutability": "view",
      "type": "function",
      "constant": true
    },
    {
      "inputs": [],
      "name": "fetchCompanyAssignedOrders",
      "outputs": [
        {
          "internalType": "uint256[]",
          "name": "",
          "type": "uint256[]"
        }
      ],
      "stateMutability": "view",
      "type": "function",
      "constant": true
    }
  ],
  "bytecode": "0x6080604052336000806101000a81548173ffffffffffffffffffffffffffffffffffffffff021916908373ffffffffffffffffffffffffffffffffffffffff16021790555060008054906101000a900473ffffffffffffffffffffffffffffffffffffffff1673ffffffffffffffffffffffffffffffffffffffff16600073ffffffffffffffffffffffffffffffffffffffff167f5c486528ec3e3f0ea91181cff8116f02bfa350e03b8b6f12e00765adbb5af85c60405160405180910390a3620000d033620000f760201b60201c565b620000e1336200015860201b60201c565b6001600881905550600160038190555062000302565b62000112816001620001b960201b62001c471790919060201c565b8073ffffffffffffffffffffffffffffffffffffffff167feaedad5bc5c69671b51a22cd12e2a8eb29d059d6872181c52a79073a38b1ba4960405160405180910390a250565b62000173816002620001b960201b62001c471790919060201c565b8073ffffffffffffffffffffffffffffffffffffffff167fcd118a02bd36f224f6f1b93812f78d2bbc2c2dc1bc0f60c176e3b4fe09f1483f60405160405180910390a250565b600073ffffffffffffffffffffffffffffffffffffffff168173ffffffffffffffffffffffffffffffffffffffff161415620001f457600080fd5b6200020682826200026f60201b60201c565b156200021157600080fd5b60018260000160008373ffffffffffffffffffffffffffffffffffffffff1673ffffffffffffffffffffffffffffffffffffffff16815260200190815260200160002060006101000a81548160ff0219169083151502179055505050565b60008073ffffffffffffffffffffffffffffffffffffffff168273ffffffffffffffffffffffffffffffffffffffff161415620002ab57600080fd5b8260000160008373ffffffffffffffffffffffffffffffffffffffff1673ffffffffffffffffffffffffffffffffffffffff16815260200190815260200160002060009054906101000a900460ff16905092915050565b612c4980620003126000396000f3fe6080604052600436106101405760003560e01c806392dbcbda116100b6578063ad973d741161006f578063ad973d7414610413578063e19efd381461043c578063ed0ab43214610465578063f284d4af1461048e578063f2fde38b146104b9578063fb931b43146104e257610140565b806392dbcbda146103245780639ae8476d1461034f5780639bc801021461037a578063a0406ce214610396578063a9752320146103d3578063ac98e6db146103fc57610140565b806341c0e1b51161010857806341c0e1b51461026057806359cc03b014610277578063634513ca1461028e578063715018a6146102b75780638da5cb5b146102ce5780638f32d59b146102f957610140565b80630bcccf3e146101455780630d9979bd146101885780631890a5b2146101b35780631b8d56ff146101dc57806328fd5e8314610223575b600080fd5b34801561015157600080fd5b5061016c6004803603810190610167919061249e565b61050b565b60405161017f97969594939291906126ec565b60405180910390f35b34801561019457600080fd5b5061019d610752565b6040516101aa9190612674565b60405180910390f35b3480156101bf57600080fd5b506101da60048036038101906101d5919061249e565b6107aa565b005b3480156101e857600080fd5b5061020360048036038101906101fe919061249e565b61091f565b60405161021a9b9a99989796959493929190612769565b60405180910390f35b34801561022f57600080fd5b5061024a600480360381019061024591906123d2565b610b82565b6040516102579190612696565b60405180910390f35b34801561026c57600080fd5b50610275610b9f565b005b34801561028357600080fd5b5061028c610bdd565b005b34801561029a57600080fd5b506102b560048036038101906102b091906123d2565b610be8565b005b3480156102c357600080fd5b506102cc610c06565b005b3480156102da57600080fd5b506102e3610cd5565b6040516102f09190612659565b60405180910390f35b34801561030557600080fd5b5061030e610cfe565b60405161031b9190612696565b60405180910390f35b34801561033057600080fd5b50610339610d55565b6040516103469190612674565b60405180910390f35b34801561035b57600080fd5b50610364610dfc565b6040516103719190612674565b60405180910390f35b610394600480360381019061038f919061250b565b610ea3565b005b3480156103a257600080fd5b506103bd60048036038101906103b891906123d2565b611518565b6040516103ca9190612696565b60405180910390f35b3480156103df57600080fd5b506103fa60048036038101906103f591906123ff565b611535565b005b34801561040857600080fd5b506104116117aa565b005b34801561041f57600080fd5b5061043a600480360381019061043591906123d2565b6117b5565b005b34801561044857600080fd5b50610463600480360381019061045e91906124cb565b6117d3565b005b34801561047157600080fd5b5061048c6004803603810190610487919061249e565b611899565b005b34801561049a57600080fd5b506104a3611a0e565b6040516104b09190612674565b60405180910390f35b3480156104c557600080fd5b506104e060048036038101906104db91906123d2565b611ab5565b005b3480156104ee57600080fd5b506105096004803603810190610504919061249e565b611ad2565b005b600080600060606000806060878060056000838152602001908152602001600020600001541461053a57600080fd5b600560008a8152602001908152602001600020600001549750600560008a815260200190815260200160002060010160009054906101000a900473ffffffffffffffffffffffffffffffffffffffff169650600560008a815260200190815260200160002060020160009054906101000a900473ffffffffffffffffffffffffffffffffffffffff169550600560008a815260200190815260200160002060030180546105e690612a3b565b80601f016020809104026020016040519081016040528092919081815260200182805461061290612a3b565b801561065f5780601f106106345761010080835404028352916020019161065f565b820191906000526020600020905b81548152906001019060200180831161064257829003601f168201915b50505050509450600560008a8152602001908152602001600020600401549350600560008a815260200190815260200160002060050160009054906101000a900460ff169250600560008a815260200190815260200160002060060180546106c690612a3b565b80601f01602080910402602001604051908101604052809291908181526020018280546106f290612a3b565b801561073f5780601f106107145761010080835404028352916020019161073f565b820191906000526020600020905b81548152906001019060200180831161072257829003601f168201915b5050505050915050919395979092949650565b606060048054806020026020016040519081016040528092919081815260200182805480156107a057602002820191906000526020600020905b81548152602001906001019080831161078c575b5050505050905090565b80806009600083815260200190815260200160002060000154146107cd57600080fd5b6107d633611518565b6107df57600080fd5b81600160038111156107f4576107f3612acd565b5b6009600083815260200190815260200160002060070160009054906101000a900460ff16600381111561082a57610829612acd565b5b1461083457600080fd5b6009600084815260200190815260200160002060070160019054906101000a900473ffffffffffffffffffffffffffffffffffffffff168073ffffffffffffffffffffffffffffffffffffffff163373ffffffffffffffffffffffffffffffffffffffff16146108a357600080fd5b60026009600086815260200190815260200160002060070160006101000a81548160ff021916908360038111156108dd576108dc612acd565b5b02179055507fb473df516d0203fc87550c7734ca4743f4cf738e3a5550f72ba08fd75ef4f8e38460405161091191906126d1565b60405180910390a150505050565b600080600060606000806000606060008060008b8060096000838152602001908152602001600020600001541461095557600080fd5b600960008e8152602001908152602001600020600001549b50600960008e815260200190815260200160002060010160009054906101000a900473ffffffffffffffffffffffffffffffffffffffff169a50600960008e8152602001908152602001600020600201549950600960008e815260200190815260200160002060030180546109e190612a3b565b80601f0160208091040260200160405190810160405280929190818152602001828054610a0d90612a3b565b8015610a5a5780601f10610a2f57610100808354040283529160200191610a5a565b820191906000526020600020905b815481529060010190602001808311610a3d57829003601f168201915b50505050509850600960008e8152602001908152602001600020600401549750600960008e8152602001908152602001600020600501549650600960008e8152602001908152602001600020600601549550610ad8600960008f815260200190815260200160002060070160009054906101000a900460ff16611cf3565b9450600960008e815260200190815260200160002060070160019054906101000a900473ffffffffffffffffffffffffffffffffffffffff169350600960008e815260200190815260200160002060080160009054906101000a900473ffffffffffffffffffffffffffffffffffffffff169250600960008e815260200190815260200160002060080160149054906101000a900460ff1691505091939597999b90929496989a50565b6000610b98826002611eda90919063ffffffff16565b9050919050565b610ba7610cfe565b610bb057600080fd5b6000610bc2610bbd610cd5565b611f6c565b90508073ffffffffffffffffffffffffffffffffffffffff16ff5b610be633611f76565b565b610bf133611518565b610bfa57600080fd5b610c0381611fd0565b50565b610c0e610cfe565b610c1757600080fd5b600073ffffffffffffffffffffffffffffffffffffffff1660008054906101000a900473ffffffffffffffffffffffffffffffffffffffff1673ffffffffffffffffffffffffffffffffffffffff167f5c486528ec3e3f0ea91181cff8116f02bfa350e03b8b6f12e00765adbb5af85c60405160405180910390a360008060006101000a81548173ffffffffffffffffffffffffffffffffffffffff021916908373ffffffffffffffffffffffffffffffffffffffff160217905550565b60008060009054906101000a900473ffffffffffffffffffffffffffffffffffffffff16905090565b60008060009054906101000a900473ffffffffffffffffffffffffffffffffffffffff1673ffffffffffffffffffffffffffffffffffffffff163373ffffffffffffffffffffffffffffffffffffffff1614905090565b6060610d6033610b82565b610d6957600080fd5b600a60003373ffffffffffffffffffffffffffffffffffffffff1673ffffffffffffffffffffffffffffffffffffffff168152602001908152602001600020805480602002602001604051908101604052809291908181526020018280548015610df257602002820191906000526020600020905b815481526020019060010190808311610dde575b5050505050905090565b6060610e0733611518565b610e1057600080fd5b600760003373ffffffffffffffffffffffffffffffffffffffff1673ffffffffffffffffffffffffffffffffffffffff168152602001908152602001600020805480602002602001604051908101604052809291908181526020018280548015610e9957602002820191906000526020600020905b815481526020019060010190808311610e85575b5050505050905090565b610eac33610b82565b610eb557600080fd5b806001811015610ec457600080fd5b8280600560008381526020019081526020016000206000015414610ee757600080fd5b826005600086815260200190815260200160002060040154610f099190612923565b80341015610f4c576040517f08c379a0000000000000000000000000000000000000000000000000000000008152600401610f43906126b1565b60405180910390fd5b836005600087815260200190815260200160002060040154610f6e9190612923565b3360006008549050604051806101600160405280828152602001610f90610cd5565b73ffffffffffffffffffffffffffffffffffffffff168152602001898152602001600560008b81526020019081526020016000206003018054610fd290612a3b565b80601f0160208091040260200160405190810160405280929190818152602001828054610ffe90612a3b565b801561104b5780601f106110205761010080835404028352916020019161104b565b820191906000526020600020905b81548152906001019060200180831161102e57829003601f168201915b50505050508152602001888152602001600560008b815260200190815260200160002060040154815260200188600560008c8152602001908152602001600020600401546110999190612923565b8152602001600060038111156110b2576110b1612acd565b5b8152602001600560008b815260200190815260200160002060020160009054906101000a900473ffffffffffffffffffffffffffffffffffffffff1673ffffffffffffffffffffffffffffffffffffffff1681526020013373ffffffffffffffffffffffffffffffffffffffff16815260200160011515815250600960008381526020019081526020016000206000820151816000015560208201518160010160006101000a81548173ffffffffffffffffffffffffffffffffffffffff021916908373ffffffffffffffffffffffffffffffffffffffff1602179055506040820151816002015560608201518160030190805190602001906111b6929190612280565b506080820151816004015560a0820151816005015560c0820151816006015560e08201518160070160006101000a81548160ff02191690836003811115611200576111ff612acd565b5b02179055506101008201518160070160016101000a81548173ffffffffffffffffffffffffffffffffffffffff021916908373ffffffffffffffffffffffffffffffffffffffff1602179055506101208201518160080160006101000a81548173ffffffffffffffffffffffffffffffffffffffff021916908373ffffffffffffffffffffffffffffffffffffffff1602179055506101408201518160080160146101000a81548160ff02191690831515021790555090505060006112fa600560008b815260200190815260200160002060020160009054906101000a900473ffffffffffffffffffffffffffffffffffffffff16611f6c565b90508073ffffffffffffffffffffffffffffffffffffffff166108fc60096000858152602001908152602001600020600501549081150290604051600060405180830381858888f19350505050158015611358573d6000803e3d6000fd5b50600a60003373ffffffffffffffffffffffffffffffffffffffff1673ffffffffffffffffffffffffffffffffffffffff16815260200190815260200160002082908060018154018082558091505060019003906000526020600020016000909190919091505560076000600560008c815260200190815260200160002060020160009054906101000a900473ffffffffffffffffffffffffffffffffffffffff1673ffffffffffffffffffffffffffffffffffffffff1673ffffffffffffffffffffffffffffffffffffffff168152602001908152602001600020829080600181540180825580915050600190039060005260206000200160009091909190915055600160085461146a91906128cd565b6008819055507f7e82078c35b6665b9d320ebeaa6c266960fad5b802c5558cf7df60c4769af95b8260405161149f91906126d1565b60405180910390a15050600082346114b7919061297d565b905060006114c483611f6c565b90508073ffffffffffffffffffffffffffffffffffffffff166108fc839081150290604051600060405180830381858888f1935050505015801561150c573d6000803e3d6000fd5b50505050505050505050565b600061152e826001611eda90919063ffffffff16565b9050919050565b61153e33611518565b61154757600080fd5b600060035490506040518060e00160405280828152602001611567610cd5565b73ffffffffffffffffffffffffffffffffffffffff1681526020013373ffffffffffffffffffffffffffffffffffffffff168152602001868152602001858152602001841515815260200183815250600560008381526020019081526020016000206000820151816000015560208201518160010160006101000a81548173ffffffffffffffffffffffffffffffffffffffff021916908373ffffffffffffffffffffffffffffffffffffffff16021790555060408201518160020160006101000a81548173ffffffffffffffffffffffffffffffffffffffff021916908373ffffffffffffffffffffffffffffffffffffffff160217905550606082015181600301908051906020019061167d929190612280565b506080820151816004015560a08201518160050160006101000a81548160ff02191690831515021790555060c08201518160060190805190602001906116c4929190612280565b50905050600660003373ffffffffffffffffffffffffffffffffffffffff1673ffffffffffffffffffffffffffffffffffffffff1681526020019081526020016000208190806001815401808255809150506001900390600052602060002001600090919091909150556004819080600181540180825580915050600190039060005260206000200160009091909190915055600160035461176691906128cd565b6003819055507f686a682458387c4aa3c29f3d512dd32a9007b27cb3a118aa23789a5ccdba34d08160405161179b91906126d1565b60405180910390a15050505050565b6117b33361202a565b565b6117be33610b82565b6117c757600080fd5b6117d081612084565b50565b81806005600083815260200190815260200160002060000154146117f657600080fd5b6005600084815260200190815260200160002060020160009054906101000a900473ffffffffffffffffffffffffffffffffffffffff168073ffffffffffffffffffffffffffffffffffffffff163373ffffffffffffffffffffffffffffffffffffffff161461186557600080fd5b826005600086815260200190815260200160002060050160006101000a81548160ff02191690831515021790555050505050565b80806009600083815260200190815260200160002060000154146118bc57600080fd5b6118c533611518565b6118ce57600080fd5b81600060038111156118e3576118e2612acd565b5b6009600083815260200190815260200160002060070160009054906101000a900460ff16600381111561191957611918612acd565b5b1461192357600080fd5b6009600084815260200190815260200160002060070160019054906101000a900473ffffffffffffffffffffffffffffffffffffffff168073ffffffffffffffffffffffffffffffffffffffff163373ffffffffffffffffffffffffffffffffffffffff161461199257600080fd5b60016009600086815260200190815260200160002060070160006101000a81548160ff021916908360038111156119cc576119cb612acd565b5b02179055507f736df6ff290b39e5e680dc14918640d5a76491436bf41675828ca4a543a15da084604051611a0091906126d1565b60405180910390a150505050565b6060611a1933611518565b611a2257600080fd5b600660003373ffffffffffffffffffffffffffffffffffffffff1673ffffffffffffffffffffffffffffffffffffffff168152602001908152602001600020805480602002602001604051908101604052809291908181526020018280548015611aab57602002820191906000526020600020905b815481526020019060010190808311611a97575b5050505050905090565b611abd610cfe565b611ac657600080fd5b611acf816120de565b50565b8080600960008381526020019081526020016000206000015414611af557600080fd5b611afe33610b82565b611b0757600080fd5b8160026003811115611b1c57611b1b612acd565b5b6009600083815260200190815260200160002060070160009054906101000a900460ff166003811115611b5257611b51612acd565b5b14611b5c57600080fd5b6009600084815260200190815260200160002060080160009054906101000a900473ffffffffffffffffffffffffffffffffffffffff168073ffffffffffffffffffffffffffffffffffffffff163373ffffffffffffffffffffffffffffffffffffffff1614611bcb57600080fd5b60036009600086815260200190815260200160002060070160006101000a81548160ff02191690836003811115611c0557611c04612acd565b5b02179055507fe21fe02c1589242b30be2057f54fd54b7ddc463695d19ffdb54f9ebb0584f24a84604051611c3991906126d1565b60405180910390a150505050565b600073ffffffffffffffffffffffffffffffffffffffff168173ffffffffffffffffffffffffffffffffffffffff161415611c8157600080fd5b611c8b8282611eda565b15611c9557600080fd5b60018260000160008373ffffffffffffffffffffffffffffffffffffffff1673ffffffffffffffffffffffffffffffffffffffff16815260200190815260200160002060006101000a81548160ff0219169083151502179055505050565b606060006003811115611d0957611d08612acd565b5b826003811115611d1c57611d1b612acd565b5b1415611d5f576040518060400160405280600781526020017f43726561746564000000000000000000000000000000000000000000000000008152509050611ed5565b60016003811115611d7357611d72612acd565b5b826003811115611d8657611d85612acd565b5b1415611dc9576040518060400160405280600781526020017f4f6e676f696e67000000000000000000000000000000000000000000000000008152509050611ed5565b60026003811115611ddd57611ddc612acd565b5b826003811115611df057611def612acd565b5b1415611e33576040518060400160405280600e81526020017f5265616479466f725069636b75700000000000000000000000000000000000008152509050611ed5565b600380811115611e4657611e45612acd565b5b826003811115611e5957611e58612acd565b5b1415611e9c576040518060400160405280600981526020017f44656c69766572656400000000000000000000000000000000000000000000008152509050611ed5565b6040518060400160405280600e81526020017f496e76616c69642053746174757300000000000000000000000000000000000081525090505b919050565b60008073ffffffffffffffffffffffffffffffffffffffff168273ffffffffffffffffffffffffffffffffffffffff161415611f1557600080fd5b8260000160008373ffffffffffffffffffffffffffffffffffffffff1673ffffffffffffffffffffffffffffffffffffffff16815260200190815260200160002060009054906101000a900460ff16905092915050565b6000819050919050565b611f8a8160016121d590919063ffffffff16565b8073ffffffffffffffffffffffffffffffffffffffff167f842a0c36aded642f477dfd0dc633355e99cc660741c20a3693f73b7a2b93760860405160405180910390a250565b611fe4816001611c4790919063ffffffff16565b8073ffffffffffffffffffffffffffffffffffffffff167feaedad5bc5c69671b51a22cd12e2a8eb29d059d6872181c52a79073a38b1ba4960405160405180910390a250565b61203e8160026121d590919063ffffffff16565b8073ffffffffffffffffffffffffffffffffffffffff167fb4c88a9c5cd906354abdd1cc29e4f94c6c4de90754fb80ce51e6a33417bc81b660405160405180910390a250565b612098816002611c4790919063ffffffff16565b8073ffffffffffffffffffffffffffffffffffffffff167fcd118a02bd36f224f6f1b93812f78d2bbc2c2dc1bc0f60c176e3b4fe09f1483f60405160405180910390a250565b600073ffffffffffffffffffffffffffffffffffffffff168173ffffffffffffffffffffffffffffffffffffffff16141561211857600080fd5b8073ffffffffffffffffffffffffffffffffffffffff1660008054906101000a900473ffffffffffffffffffffffffffffffffffffffff1673ffffffffffffffffffffffffffffffffffffffff167f5c486528ec3e3f0ea91181cff8116f02bfa350e03b8b6f12e00765adbb5af85c60405160405180910390a3806000806101000a81548173ffffffffffffffffffffffffffffffffffffffff021916908373ffffffffffffffffffffffffffffffffffffffff16021790555050565b600073ffffffffffffffffffffffffffffffffffffffff168173ffffffffffffffffffffffffffffffffffffffff16141561220f57600080fd5b6122198282611eda565b61222257600080fd5b60008260000160008373ffffffffffffffffffffffffffffffffffffffff1673ffffffffffffffffffffffffffffffffffffffff16815260200190815260200160002060006101000a81548160ff0219169083151502179055505050565b82805461228c90612a3b565b90600052602060002090601f0160209004810192826122ae57600085556122f5565b82601f106122c757805160ff19168380011785556122f5565b828001600101855582156122f5579182015b828111156122f45782518255916020019190600101906122d9565b5b5090506123029190612306565b5090565b5b8082111561231f576000816000905550600101612307565b5090565b600061233661233184612847565b612822565b90508281526020810184848401111561235257612351612b5f565b5b61235d8482856129f9565b509392505050565b60008135905061237481612bce565b92915050565b60008135905061238981612be5565b92915050565b600082601f8301126123a4576123a3612b5a565b5b81356123b4848260208601612323565b91505092915050565b6000813590506123cc81612bfc565b92915050565b6000602082840312156123e8576123e7612b69565b5b60006123f684828501612365565b91505092915050565b6000806000806080858703121561241957612418612b69565b5b600085013567ffffffffffffffff81111561243757612436612b64565b5b6124438782880161238f565b9450506020612454878288016123bd565b93505060406124658782880161237a565b925050606085013567ffffffffffffffff81111561248657612485612b64565b5b6124928782880161238f565b91505092959194509250565b6000602082840312156124b4576124b3612b69565b5b60006124c2848285016123bd565b91505092915050565b600080604083850312156124e2576124e1612b69565b5b60006124f0858286016123bd565b92505060206125018582860161237a565b9150509250929050565b6000806040838503121561252257612521612b69565b5b6000612530858286016123bd565b9250506020612541858286016123bd565b9150509250929050565b6000612557838361263b565b60208301905092915050565b61256c816129b1565b82525050565b600061257d82612888565b61258781856128ab565b935061259283612878565b8060005b838110156125c35781516125aa888261254b565b97506125b58361289e565b925050600181019050612596565b5085935050505092915050565b6125d9816129c3565b82525050565b60006125ea82612893565b6125f481856128bc565b9350612604818560208601612a08565b61260d81612b6e565b840191505092915050565b60006126256022836128bc565b915061263082612b7f565b604082019050919050565b612644816129ef565b82525050565b612653816129ef565b82525050565b600060208201905061266e6000830184612563565b92915050565b6000602082019050818103600083015261268e8184612572565b905092915050565b60006020820190506126ab60008301846125d0565b92915050565b600060208201905081810360008301526126ca81612618565b9050919050565b60006020820190506126e6600083018461264a565b92915050565b600060e082019050612701600083018a61264a565b61270e6020830189612563565b61271b6040830188612563565b818103606083015261272d81876125df565b905061273c608083018661264a565b61274960a08301856125d0565b81810360c083015261275b81846125df565b905098975050505050505050565b60006101608201905061277f600083018e61264a565b61278c602083018d612563565b612799604083018c61264a565b81810360608301526127ab818b6125df565b90506127ba608083018a61264a565b6127c760a083018961264a565b6127d460c083018861264a565b81810360e08301526127e681876125df565b90506127f6610100830186612563565b612804610120830185612563565b6128126101408301846125d0565b9c9b505050505050505050505050565b600061282c61283d565b90506128388282612a6d565b919050565b6000604051905090565b600067ffffffffffffffff82111561286257612861612b2b565b5b61286b82612b6e565b9050602081019050919050565b6000819050602082019050919050565b600081519050919050565b600081519050919050565b6000602082019050919050565b600082825260208201905092915050565b600082825260208201905092915050565b60006128d8826129ef565b91506128e3836129ef565b9250827fffffffffffffffffffffffffffffffffffffffffffffffffffffffffffffffff0382111561291857612917612a9e565b5b828201905092915050565b600061292e826129ef565b9150612939836129ef565b9250817fffffffffffffffffffffffffffffffffffffffffffffffffffffffffffffffff048311821515161561297257612971612a9e565b5b828202905092915050565b6000612988826129ef565b9150612993836129ef565b9250828210156129a6576129a5612a9e565b5b828203905092915050565b60006129bc826129cf565b9050919050565b60008115159050919050565b600073ffffffffffffffffffffffffffffffffffffffff82169050919050565b6000819050919050565b82818337600083830152505050565b60005b83811015612a26578082015181840152602081019050612a0b565b83811115612a35576000848401525b50505050565b60006002820490506001821680612a5357607f821691505b60208210811415612a6757612a66612afc565b5b50919050565b612a7682612b6e565b810181811067ffffffffffffffff82111715612a9557612a94612b2b565b5b80604052505050565b7f4e487b7100000000000000000000000000000000000000000000000000000000600052601160045260246000fd5b7f4e487b7100000000000000000000000000000000000000000000000000000000600052602160045260246000fd5b7f4e487b7100000000000000000000000000000000000000000000000000000000600052602260045260246000fd5b7f4e487b7100000000000000000000000000000000000000000000000000000000600052604160045260246000fd5b600080fd5b600080fd5b600080fd5b600080fd5b6000601f19601f8301169050919050565b7f4163636f756e7420646f6573206e6f74206861766520656e6f7567682045746860008201527f6572000000000000000000000000000000000000000000000000000000000000602082015250565b612bd7816129b1565b8114612be257600080fd5b50565b612bee816129c3565b8114612bf957600080fd5b50565b612c05816129ef565b8114612c1057600080fd5b5056fea2646970667358221220de0e324f5f4d2a3cabc0463cdfc4ae91e92fd8a13f4c7d4732b1d756b665ac8564736f6c63430008060033",
  "immutableReferences": {},
  "source": "// SPDX-License-Identifier: GPL-3.0\npragma solidity >=0.4.22 <0.9.0;\n\nimport \"../core/Ownable.sol\";\nimport \"../accesscontrol/CompanyRole.sol\";\nimport \"../accesscontrol/CustomerRole.sol\";\n\ncontract SupplyChain is Ownable, CompanyRole, CustomerRole {\n\n\tuint cakeIDCount;\n\t\n  uint [] cakeIDs;\n  mapping (uint => Cake) availableCakes;\n  mapping (address => uint []) companyCakes;\n  mapping (address => uint []) companyAssignedOrders;\n  \n  struct Cake {\n    uint    cakeID;\n    address ownerID;\n\t  address companyID;\n    string  cakeName;\n\t\tuint\t\tcakePrice;\n\t\tbool\t\tonSale;\n    string  imageUrl;\n  }\n\n  event NewAvailableCake(uint cakeID);\n\n  uint orderIDCount;\n  \n  mapping (uint => Order) orders;\n  mapping (address => uint []) customerOrders;\n\n  enum State { \n    Created,\n    Ongoing,\n    ReadyForPickup,\n    Delivered\n\t}\n\n  State constant defaultState = State.Created;\n\n  struct Order {\n    uint    orderID;\n    address ownerID;\n    uint    cakeID;\n\t  string  cakeName;\n    uint    quantity;\n    uint    cakePrice;\n    uint    totalPrice;\n    State   orderState;\n    address companyID;\n    address customerID;\n\t\tbool paid;\n  }\n\n  event OrderCreated(uint orderID);\n  event OrderOngoing(uint orderID);\n  event OrderReadyForPickup(uint orderID);\n  event OrderDelivered(uint orderID);\n\n  modifier verifyCaller(address _address) {\n    require(msg.sender == _address); \n    _;\n  }\n\n  modifier paidEnough(uint _price) { \n    require(msg.value >= _price, \"Account does not have enough Ether\"); \n    _;\n  }\n  \n  modifier checkValue(uint _price, address _consumerID) {\n    _;\n    uint amountToReturn = msg.value - _price;\n    address payable consumerAddressPayable = _make_payable(_consumerID);\n    consumerAddressPayable.transfer(amountToReturn);\n  }\n\n  modifier cakeAvailable(uint _cakeID) {\n\t\trequire(availableCakes[_cakeID].cakeID == _cakeID);\n    _;\n  }\n\n  modifier orderExists(uint _orderID) {\n\t\trequire(orders[_orderID].orderID == _orderID);\n    _;\n  }\n\n  modifier created(uint _orderID) {\n    require(orders[_orderID].orderState == State.Created);\n    _;\n  }\n\n  modifier ongoing(uint _orderID) {\n\t\trequire(orders[_orderID].orderState == State.Ongoing);\n    _;\n  }\n\n  modifier readyForPickup(uint _orderID) {\n\t\trequire(orders[_orderID].orderState == State.ReadyForPickup);\n    _;\n  }\n\n  modifier delivered(uint _orderID) {\n\t\trequire(orders[_orderID].orderState == State.Delivered);\n    _;\n  }\n\n  modifier minQuantity(uint _quantity) {\n\t\trequire(_quantity >= 1);\n    _;\n  }\n\n  constructor() payable {\n    orderIDCount = 1;\n\t\tcakeIDCount = 1;\n  }\n\n  function _make_payable(address x) internal pure returns (address payable) {\n      return payable(x);\n  }\n\n  function kill() public onlyOwner {\n    address payable ownerAddressPayable = _make_payable(owner());\n    selfdestruct(ownerAddressPayable);\n  }\n\n  function addAvailableCake(string memory _cakeName, uint _cakePrice,\n    bool _onSale, string memory _imageUrl) public onlyCompany\n  {\n\t\tuint _cakeID = cakeIDCount;\n\t\tavailableCakes[_cakeID] = Cake({\n      cakeID: _cakeID,\n    \townerID: owner(),\n\t\t  companyID: msg.sender,\n    \tcakeName: _cakeName,\n\t\t\tcakePrice: _cakePrice,\n\t\t\tonSale: _onSale,\n      imageUrl: _imageUrl\n\t\t});\n    companyCakes[msg.sender].push(_cakeID);\n    cakeIDs.push(_cakeID);\n\n    cakeIDCount = cakeIDCount + 1;\n    emit NewAvailableCake(_cakeID);\n  }\n\n  function toggleCakeOnSale(uint _cakeID, bool _onSale) public\n  cakeAvailable(_cakeID)\n  verifyCaller(availableCakes[_cakeID].companyID)\n  {\n    availableCakes[_cakeID].onSale = _onSale;\n  }\n\n  function makeOrder(uint _cakeID, uint _quantity) public payable\n\tonlyCustomer\n  minQuantity(_quantity)\n\tcakeAvailable(_cakeID)\n\tpaidEnough(availableCakes[_cakeID].cakePrice*_quantity)\n\tcheckValue(availableCakes[_cakeID].cakePrice*_quantity, msg.sender)\n  {\n\t\tuint _orderID = orderIDCount;\n\t\torders[_orderID] = Order({\n\t    orderID: _orderID,\n\t\t\townerID: owner(),\n\t\t\tcakeID: _cakeID,\n\t\t\tcakeName: availableCakes[_cakeID].cakeName,\n      quantity: _quantity,\n\t\t\tcakePrice: availableCakes[_cakeID].cakePrice,\n      totalPrice: availableCakes[_cakeID].cakePrice*_quantity,\n\t\t\torderState: defaultState,\n\t\t\tcompanyID: availableCakes[_cakeID].companyID,\n\t\t\tcustomerID: msg.sender,\n\t\t\tpaid: true\n\t\t});\n\n    address payable companyAddressPayable = _make_payable(availableCakes[_cakeID].companyID);\n    companyAddressPayable.transfer(orders[_orderID].cakePrice);\n\n    customerOrders[msg.sender].push(_orderID);\n    companyAssignedOrders[availableCakes[_cakeID].companyID].push(_orderID);\n\n    orderIDCount = orderIDCount + 1;\n    emit OrderCreated(_orderID);\n  }\n\n  function startBakingCake(uint _orderID) public\n\torderExists(_orderID)\n  onlyCompany\n  created(_orderID)\n  verifyCaller(orders[_orderID].companyID)\n  {\n\t\torders[_orderID].orderState = State.Ongoing;\n    emit OrderOngoing(_orderID);\n  }\n\n  function prepareForPickup(uint _orderID) public\n\torderExists(_orderID)\n\tonlyCompany\n  ongoing(_orderID)\n  verifyCaller(orders[_orderID].companyID)\n  {\n\t\torders[_orderID].orderState = State.ReadyForPickup;\n    emit OrderReadyForPickup(_orderID); \n  }\n\n  function pickupCake(uint _orderID) public\n\torderExists(_orderID)\n\tonlyCustomer\n  readyForPickup(_orderID)\n  verifyCaller(orders[_orderID].customerID)\n  {\n\t\torders[_orderID].orderState = State.Delivered;\n    emit OrderDelivered(_orderID);\n  }\n\n  function fetchCake(uint _cakeID) public view cakeAvailable(_cakeID) returns (\n    uint cakeID,\n    address ownerID,\n\t  address companyID,\n    string memory cakeName,\n\t\tuint cakePrice,\n\t\tbool onSale,\n    string memory imageUrl\n  )\n  {\n    cakeID = availableCakes[_cakeID].cakeID;\n\t\townerID =\tavailableCakes[_cakeID].ownerID;\n\t\tcompanyID =\tavailableCakes[_cakeID].companyID;\n\t\tcakeName = availableCakes[_cakeID].cakeName;\n\t\tcakePrice = availableCakes[_cakeID].cakePrice;\n\t\tonSale = availableCakes[_cakeID].onSale;\n    imageUrl = availableCakes[_cakeID].imageUrl;\n\n    return (\n    \tcakeID,\n\t\t\townerID,\n\t\t\tcompanyID,\n\t\t\tcakeName,\n\t\t\tcakePrice,\n\t\t\tonSale,\n      imageUrl\n\t\t);\n  }\n\n  function fetchAllCakeIDs() public view returns (uint [] memory)\n  {\n    return cakeIDs;\n  }\n\n  function fetchCompanyCakes() public view onlyCompany returns (uint [] memory)\n  {\n    return companyCakes[msg.sender];\n  }\n\n  function orderStateToString(State _orderState) internal pure returns (\n    string memory)\n  { \n    if (_orderState == State.Created) return \"Created\";\n    if (_orderState == State.Ongoing) return \"Ongoing\";\n    if (_orderState == State.ReadyForPickup) return \"ReadyForPickup\";\n    if (_orderState == State.Delivered) return \"Delivered\";\n\n    return \"Invalid Status\";\n  }\n\n  function fetchOrder(uint _orderID) public view orderExists(_orderID) returns (\n    uint orderID,\n    address ownerID,\n    uint cakeID,\n    string memory cakeName,\n    uint quantity,\n    uint cakePrice,\n    uint totalPrice,\n    string memory orderState,\n    address companyID,\n    address customerID,\n\t\tbool paid\n  )\n  {\n    orderID =\torders[_orderID].orderID;\n\t\townerID =\torders[_orderID].ownerID;\n\t\tcakeID = orders[_orderID].cakeID;\n\t\tcakeName = orders[_orderID].cakeName;\n    quantity = orders[_orderID].quantity;\n\t\tcakePrice = orders[_orderID].cakePrice;\n\t\ttotalPrice = orders[_orderID].totalPrice;\n\t\torderState = orderStateToString(orders[_orderID].orderState);\n\t\tcompanyID = orders[_orderID].companyID;\n\t\tcustomerID = orders[_orderID].customerID;\n\t\tpaid = orders[_orderID].paid;\n    \n\t\treturn (\n      orderID,\n      ownerID,\n      cakeID,\n      cakeName,\n      quantity,\n      cakePrice,\n      totalPrice,\n      orderState,\n      companyID,\n      customerID,\n      paid\n\t\t);\n  }\n\n  function fetchCustomerOrders() public view onlyCustomer returns (uint [] memory)\n  {\n    return customerOrders[msg.sender];\n  }\n\n  function fetchCompanyAssignedOrders() public view onlyCompany returns (uint [] memory)\n  {\n    return companyAssignedOrders[msg.sender];\n  }\n}\n",
  "sourcePath": "/Users/mac13/Documents/Studies/Udacity/Blockchain Developer ND/4. Blockchain Architecture/Submission/la-boulangerie/contracts/base/SupplyChain.sol",
  "compiler": {
    "name": "solc",
    "version": "0.8.6+commit.11564f7e.Emscripten.clang"
  },
  "schemaVersion": "3.4.1",
  "updatedAt": "2021-08-13T09:03:07.661Z",
  "networkType": "ethereum",
  "devdoc": {
    "kind": "dev",
    "methods": {},
    "version": 1
  },
  "userdoc": {
    "kind": "user",
    "methods": {},
    "version": 1
  }
}