{
  "contractName": "CompanyRole",
  "abi": [
    {
      "inputs": [],
      "stateMutability": "nonpayable",
      "type": "constructor"
    },
    {
      "anonymous": false,
      "inputs": [
        {
          "indexed": true,
          "internalType": "address",
          "name": "account",
          "type": "address"
        }
      ],
      "name": "CompanyAdded",
      "type": "event"
    },
    {
      "anonymous": false,
      "inputs": [
        {
          "indexed": true,
          "internalType": "address",
          "name": "account",
          "type": "address"
        }
      ],
      "name": "CompanyRemoved",
      "type": "event"
    },
    {
      "inputs": [
        {
          "internalType": "address",
          "name": "account",
          "type": "address"
        }
      ],
      "name": "isCompany",
      "outputs": [
        {
          "internalType": "bool",
          "name": "",
          "type": "bool"
        }
      ],
      "stateMutability": "view",
      "type": "function",
      "constant": true
    },
    {
      "inputs": [
        {
          "internalType": "address",
          "name": "account",
          "type": "address"
        }
      ],
      "name": "addCompany",
      "outputs": [],
      "stateMutability": "nonpayable",
      "type": "function"
    },
    {
      "inputs": [],
      "name": "renounceCompany",
      "outputs": [],
      "stateMutability": "nonpayable",
      "type": "function"
    }
  ],
  "bytecode": "0x608060405234801561001057600080fd5b506100203361002560201b60201c565b6101c7565b61003d81600061008360201b6100e21790919060201c565b8073ffffffffffffffffffffffffffffffffffffffff167feaedad5bc5c69671b51a22cd12e2a8eb29d059d6872181c52a79073a38b1ba4960405160405180910390a250565b600073ffffffffffffffffffffffffffffffffffffffff168173ffffffffffffffffffffffffffffffffffffffff1614156100bd57600080fd5b6100cd828261013560201b60201c565b156100d757600080fd5b60018260000160008373ffffffffffffffffffffffffffffffffffffffff1673ffffffffffffffffffffffffffffffffffffffff16815260200190815260200160002060006101000a81548160ff0219169083151502179055505050565b60008073ffffffffffffffffffffffffffffffffffffffff168273ffffffffffffffffffffffffffffffffffffffff16141561017057600080fd5b8260000160008373ffffffffffffffffffffffffffffffffffffffff1673ffffffffffffffffffffffffffffffffffffffff16815260200190815260200160002060009054906101000a900460ff16905092915050565b61047b806101d66000396000f3fe608060405234801561001057600080fd5b50600436106100415760003560e01c806359cc03b014610046578063634513ca14610050578063a0406ce21461006c575b600080fd5b61004e61009c565b005b61006a60048036038101906100659190610394565b6100a7565b005b61008660048036038101906100819190610394565b6100c5565b60405161009391906103d0565b60405180910390f35b6100a53361018e565b565b6100b0336100c5565b6100b957600080fd5b6100c2816101e8565b50565b60006100db82600061024290919063ffffffff16565b9050919050565b600073ffffffffffffffffffffffffffffffffffffffff168173ffffffffffffffffffffffffffffffffffffffff16141561011c57600080fd5b6101268282610242565b1561013057600080fd5b60018260000160008373ffffffffffffffffffffffffffffffffffffffff1673ffffffffffffffffffffffffffffffffffffffff16815260200190815260200160002060006101000a81548160ff0219169083151502179055505050565b6101a28160006102d490919063ffffffff16565b8073ffffffffffffffffffffffffffffffffffffffff167f842a0c36aded642f477dfd0dc633355e99cc660741c20a3693f73b7a2b93760860405160405180910390a250565b6101fc8160006100e290919063ffffffff16565b8073ffffffffffffffffffffffffffffffffffffffff167feaedad5bc5c69671b51a22cd12e2a8eb29d059d6872181c52a79073a38b1ba4960405160405180910390a250565b60008073ffffffffffffffffffffffffffffffffffffffff168273ffffffffffffffffffffffffffffffffffffffff16141561027d57600080fd5b8260000160008373ffffffffffffffffffffffffffffffffffffffff1673ffffffffffffffffffffffffffffffffffffffff16815260200190815260200160002060009054906101000a900460ff16905092915050565b600073ffffffffffffffffffffffffffffffffffffffff168173ffffffffffffffffffffffffffffffffffffffff16141561030e57600080fd5b6103188282610242565b61032157600080fd5b60008260000160008373ffffffffffffffffffffffffffffffffffffffff1673ffffffffffffffffffffffffffffffffffffffff16815260200190815260200160002060006101000a81548160ff0219169083151502179055505050565b60008135905061038e8161042e565b92915050565b6000602082840312156103aa576103a9610429565b5b60006103b88482850161037f565b91505092915050565b6103ca816103fd565b82525050565b60006020820190506103e560008301846103c1565b92915050565b60006103f682610409565b9050919050565b60008115159050919050565b600073ffffffffffffffffffffffffffffffffffffffff82169050919050565b600080fd5b610437816103eb565b811461044257600080fd5b5056fea2646970667358221220640cc1918b3ffb9e6c6dd53f544df261e8b1a4c21bd61104f7fd4136d73afcb264736f6c63430008060033",
  "immutableReferences": {},
  "source": "// SPDX-License-Identifier: GPL-3.0\npragma solidity >=0.4.22 <0.9.0;\n\nimport \"./Roles.sol\";\n\ncontract CompanyRole {\n  using Roles for Roles.Role;\n\n  event CompanyAdded(address indexed account);\n  event CompanyRemoved(address indexed account);\n\n  Roles.Role private company;\n\n  constructor() {\n    _addCompany(msg.sender);  \n  }\n\n  modifier onlyCompany() {\n    require(isCompany(msg.sender));\n    _;\n  }\n\n  function isCompany(address account) public view returns (bool) {\n    return company.has(account);\n  }\n\n  function addCompany(address account) public onlyCompany {\n    _addCompany(account);\n  }\n\n  function renounceCompany() public {\n    _removeCompany(msg.sender);\n  }\n\n  function _addCompany(address account) internal {\n    company.add(account);\n    emit CompanyAdded(account);\n  }\n\n  function _removeCompany(address account) internal {\n    company.remove(account);\n    emit CompanyRemoved(account);\n  }\n}\n",
  "sourcePath": "/Users/mac13/Documents/Studies/Udacity/Blockchain Developer ND/4. Blockchain Architecture/Submission/la-boulangerie/contracts/accesscontrol/CompanyRole.sol",
  "compiler": {
    "name": "solc",
    "version": "0.8.6+commit.11564f7e.Emscripten.clang"
  },
  "schemaVersion": "3.4.1",
  "updatedAt": "2021-07-31T20:20:48.182Z",
  "networkType": "ethereum",
  "devdoc": {
    "kind": "dev",
    "methods": {},
    "version": 1
  },
  "userdoc": {
    "kind": "user",
    "methods": {},
    "version": 1
  }
}