{
  "contractName": "SupplyChain",
  "abi": [
    {
      "inputs": [],
      "stateMutability": "payable",
      "type": "constructor",
      "payable": true
    },
    {
      "anonymous": false,
      "inputs": [
        {
          "indexed": true,
          "internalType": "address",
          "name": "account",
          "type": "address"
        }
      ],
      "name": "CompanyAdded",
      "type": "event"
    },
    {
      "anonymous": false,
      "inputs": [
        {
          "indexed": true,
          "internalType": "address",
          "name": "account",
          "type": "address"
        }
      ],
      "name": "CompanyRemoved",
      "type": "event"
    },
    {
      "anonymous": false,
      "inputs": [
        {
          "indexed": true,
          "internalType": "address",
          "name": "account",
          "type": "address"
        }
      ],
      "name": "CustomerAdded",
      "type": "event"
    },
    {
      "anonymous": false,
      "inputs": [
        {
          "indexed": true,
          "internalType": "address",
          "name": "account",
          "type": "address"
        }
      ],
      "name": "CustomerRemoved",
      "type": "event"
    },
    {
      "anonymous": false,
      "inputs": [
        {
          "indexed": false,
          "internalType": "uint256",
          "name": "cakeID",
          "type": "uint256"
        }
      ],
      "name": "NewAvailableCake",
      "type": "event"
    },
    {
      "anonymous": false,
      "inputs": [
        {
          "indexed": false,
          "internalType": "uint256",
          "name": "orderID",
          "type": "uint256"
        }
      ],
      "name": "OrderCreated",
      "type": "event"
    },
    {
      "anonymous": false,
      "inputs": [
        {
          "indexed": false,
          "internalType": "uint256",
          "name": "orderID",
          "type": "uint256"
        }
      ],
      "name": "OrderDelivered",
      "type": "event"
    },
    {
      "anonymous": false,
      "inputs": [
        {
          "indexed": false,
          "internalType": "uint256",
          "name": "orderID",
          "type": "uint256"
        }
      ],
      "name": "OrderOngoing",
      "type": "event"
    },
    {
      "anonymous": false,
      "inputs": [
        {
          "indexed": false,
          "internalType": "uint256",
          "name": "orderID",
          "type": "uint256"
        }
      ],
      "name": "OrderReadyForPickup",
      "type": "event"
    },
    {
      "anonymous": false,
      "inputs": [
        {
          "indexed": true,
          "internalType": "address",
          "name": "oldOwner",
          "type": "address"
        },
        {
          "indexed": true,
          "internalType": "address",
          "name": "newOwner",
          "type": "address"
        }
      ],
      "name": "TransferOwnership",
      "type": "event"
    },
    {
      "inputs": [
        {
          "internalType": "address",
          "name": "account",
          "type": "address"
        }
      ],
      "name": "addCompany",
      "outputs": [],
      "stateMutability": "nonpayable",
      "type": "function"
    },
    {
      "inputs": [
        {
          "internalType": "address",
          "name": "account",
          "type": "address"
        }
      ],
      "name": "addCustomer",
      "outputs": [],
      "stateMutability": "nonpayable",
      "type": "function"
    },
    {
      "inputs": [
        {
          "internalType": "address",
          "name": "account",
          "type": "address"
        }
      ],
      "name": "isCompany",
      "outputs": [
        {
          "internalType": "bool",
          "name": "",
          "type": "bool"
        }
      ],
      "stateMutability": "view",
      "type": "function",
      "constant": true
    },
    {
      "inputs": [
        {
          "internalType": "address",
          "name": "account",
          "type": "address"
        }
      ],
      "name": "isCustomer",
      "outputs": [
        {
          "internalType": "bool",
          "name": "",
          "type": "bool"
        }
      ],
      "stateMutability": "view",
      "type": "function",
      "constant": true
    },
    {
      "inputs": [],
      "name": "isOwner",
      "outputs": [
        {
          "internalType": "bool",
          "name": "",
          "type": "bool"
        }
      ],
      "stateMutability": "view",
      "type": "function",
      "constant": true
    },
    {
      "inputs": [],
      "name": "owner",
      "outputs": [
        {
          "internalType": "address",
          "name": "",
          "type": "address"
        }
      ],
      "stateMutability": "view",
      "type": "function",
      "constant": true
    },
    {
      "inputs": [],
      "name": "renounceCompany",
      "outputs": [],
      "stateMutability": "nonpayable",
      "type": "function"
    },
    {
      "inputs": [],
      "name": "renounceCustomer",
      "outputs": [],
      "stateMutability": "nonpayable",
      "type": "function"
    },
    {
      "inputs": [],
      "name": "renounceOwnership",
      "outputs": [],
      "stateMutability": "nonpayable",
      "type": "function"
    },
    {
      "inputs": [
        {
          "internalType": "address",
          "name": "newOwner",
          "type": "address"
        }
      ],
      "name": "transferOwnership",
      "outputs": [],
      "stateMutability": "nonpayable",
      "type": "function"
    },
    {
      "inputs": [],
      "name": "kill",
      "outputs": [],
      "stateMutability": "nonpayable",
      "type": "function"
    },
    {
      "inputs": [
        {
          "internalType": "string",
          "name": "_cakeName",
          "type": "string"
        },
        {
          "internalType": "uint256",
          "name": "_cakePrice",
          "type": "uint256"
        },
        {
          "internalType": "bool",
          "name": "_onSale",
          "type": "bool"
        },
        {
          "internalType": "string",
          "name": "_imageUrl",
          "type": "string"
        }
      ],
      "name": "addAvailableCake",
      "outputs": [],
      "stateMutability": "nonpayable",
      "type": "function"
    },
    {
      "inputs": [
        {
          "internalType": "uint256",
          "name": "_cakeID",
          "type": "uint256"
        },
        {
          "internalType": "uint256",
          "name": "_quantity",
          "type": "uint256"
        }
      ],
      "name": "makeOrder",
      "outputs": [],
      "stateMutability": "payable",
      "type": "function",
      "payable": true
    },
    {
      "inputs": [
        {
          "internalType": "uint256",
          "name": "_orderID",
          "type": "uint256"
        }
      ],
      "name": "startBakingCake",
      "outputs": [],
      "stateMutability": "nonpayable",
      "type": "function"
    },
    {
      "inputs": [
        {
          "internalType": "uint256",
          "name": "_orderID",
          "type": "uint256"
        }
      ],
      "name": "prepareForPickup",
      "outputs": [],
      "stateMutability": "nonpayable",
      "type": "function"
    },
    {
      "inputs": [
        {
          "internalType": "uint256",
          "name": "_orderID",
          "type": "uint256"
        }
      ],
      "name": "pickupCake",
      "outputs": [],
      "stateMutability": "nonpayable",
      "type": "function"
    },
    {
      "inputs": [
        {
          "internalType": "uint256",
          "name": "_cakeID",
          "type": "uint256"
        }
      ],
      "name": "fetchCake",
      "outputs": [
        {
          "internalType": "uint256",
          "name": "cakeID",
          "type": "uint256"
        },
        {
          "internalType": "address",
          "name": "ownerID",
          "type": "address"
        },
        {
          "internalType": "address",
          "name": "companyID",
          "type": "address"
        },
        {
          "internalType": "string",
          "name": "cakeName",
          "type": "string"
        },
        {
          "internalType": "uint256",
          "name": "cakePrice",
          "type": "uint256"
        },
        {
          "internalType": "bool",
          "name": "onSale",
          "type": "bool"
        },
        {
          "internalType": "string",
          "name": "imageUrl",
          "type": "string"
        }
      ],
      "stateMutability": "view",
      "type": "function",
      "constant": true
    },
    {
      "inputs": [],
      "name": "fetchCompanyCakes",
      "outputs": [
        {
          "internalType": "uint256[]",
          "name": "",
          "type": "uint256[]"
        }
      ],
      "stateMutability": "view",
      "type": "function",
      "constant": true
    },
    {
      "inputs": [
        {
          "internalType": "uint256",
          "name": "_orderID",
          "type": "uint256"
        }
      ],
      "name": "fetchOrder",
      "outputs": [
        {
          "internalType": "uint256",
          "name": "orderID",
          "type": "uint256"
        },
        {
          "internalType": "address",
          "name": "ownerID",
          "type": "address"
        },
        {
          "internalType": "uint256",
          "name": "cakeID",
          "type": "uint256"
        },
        {
          "internalType": "string",
          "name": "cakeName",
          "type": "string"
        },
        {
          "internalType": "uint256",
          "name": "quantity",
          "type": "uint256"
        },
        {
          "internalType": "uint256",
          "name": "cakePrice",
          "type": "uint256"
        },
        {
          "internalType": "uint256",
          "name": "totalPrice",
          "type": "uint256"
        },
        {
          "internalType": "string",
          "name": "orderState",
          "type": "string"
        },
        {
          "internalType": "address",
          "name": "companyID",
          "type": "address"
        },
        {
          "internalType": "address",
          "name": "customerID",
          "type": "address"
        },
        {
          "internalType": "bool",
          "name": "paid",
          "type": "bool"
        }
      ],
      "stateMutability": "view",
      "type": "function",
      "constant": true
    },
    {
      "inputs": [],
      "name": "fetchCustomerOrders",
      "outputs": [
        {
          "internalType": "uint256[]",
          "name": "",
          "type": "uint256[]"
        }
      ],
      "stateMutability": "view",
      "type": "function",
      "constant": true
    },
    {
      "inputs": [],
      "name": "fetchCompanyAssignedOrders",
      "outputs": [
        {
          "internalType": "uint256[]",
          "name": "",
          "type": "uint256[]"
        }
      ],
      "stateMutability": "view",
      "type": "function",
      "constant": true
    }
  ],
  "bytecode": "0x6080604052336000806101000a81548173ffffffffffffffffffffffffffffffffffffffff021916908373ffffffffffffffffffffffffffffffffffffffff16021790555060008054906101000a900473ffffffffffffffffffffffffffffffffffffffff1673ffffffffffffffffffffffffffffffffffffffff16600073ffffffffffffffffffffffffffffffffffffffff167f5c486528ec3e3f0ea91181cff8116f02bfa350e03b8b6f12e00765adbb5af85c60405160405180910390a3620000d033620000f760201b60201c565b620000e1336200015860201b60201c565b6001600781905550600160038190555062000302565b62000112816001620001b960201b620019c41790919060201c565b8073ffffffffffffffffffffffffffffffffffffffff167feaedad5bc5c69671b51a22cd12e2a8eb29d059d6872181c52a79073a38b1ba4960405160405180910390a250565b62000173816002620001b960201b620019c41790919060201c565b8073ffffffffffffffffffffffffffffffffffffffff167fcd118a02bd36f224f6f1b93812f78d2bbc2c2dc1bc0f60c176e3b4fe09f1483f60405160405180910390a250565b600073ffffffffffffffffffffffffffffffffffffffff168173ffffffffffffffffffffffffffffffffffffffff161415620001f457600080fd5b6200020682826200026f60201b60201c565b156200021157600080fd5b60018260000160008373ffffffffffffffffffffffffffffffffffffffff1673ffffffffffffffffffffffffffffffffffffffff16815260200190815260200160002060006101000a81548160ff0219169083151502179055505050565b60008073ffffffffffffffffffffffffffffffffffffffff168273ffffffffffffffffffffffffffffffffffffffff161415620002ab57600080fd5b8260000160008373ffffffffffffffffffffffffffffffffffffffff1673ffffffffffffffffffffffffffffffffffffffff16815260200190815260200160002060009054906101000a900460ff16905092915050565b6128f480620003126000396000f3fe60806040526004361061012a5760003560e01c806392dbcbda116100ab578063ac98e6db1161006f578063ac98e6db146103bb578063ad973d74146103d2578063ed0ab432146103fb578063f284d4af14610424578063f2fde38b1461044f578063fb931b43146104785761012a565b806392dbcbda146102e35780639ae8476d1461030e5780639bc8010214610339578063a0406ce214610355578063a9752320146103925761012a565b806359cc03b0116100f257806359cc03b014610236578063634513ca1461024d578063715018a6146102765780638da5cb5b1461028d5780638f32d59b146102b85761012a565b80630bcccf3e1461012f5780631890a5b2146101725780631b8d56ff1461019b57806328fd5e83146101e257806341c0e1b51461021f575b600080fd5b34801561013b57600080fd5b506101566004803603810190610151919061221b565b6104a1565b60405161016997969594939291906123e6565b60405180910390f35b34801561017e57600080fd5b506101996004803603810190610194919061221b565b6106e8565b005b3480156101a757600080fd5b506101c260048036038101906101bd919061221b565b61085d565b6040516101d99b9a99989796959493929190612463565b60405180910390f35b3480156101ee57600080fd5b506102096004803603810190610204919061214f565b610ac0565b60405161021691906123b0565b60405180910390f35b34801561022b57600080fd5b50610234610add565b005b34801561024257600080fd5b5061024b610b1b565b005b34801561025957600080fd5b50610274600480360381019061026f919061214f565b610b26565b005b34801561028257600080fd5b5061028b610b44565b005b34801561029957600080fd5b506102a2610c13565b6040516102af9190612373565b60405180910390f35b3480156102c457600080fd5b506102cd610c3c565b6040516102da91906123b0565b60405180910390f35b3480156102ef57600080fd5b506102f8610c93565b604051610305919061238e565b60405180910390f35b34801561031a57600080fd5b50610323610d3a565b604051610330919061238e565b60405180910390f35b610353600480360381019061034e9190612248565b610de1565b005b34801561036157600080fd5b5061037c6004803603810190610377919061214f565b611384565b60405161038991906123b0565b60405180910390f35b34801561039e57600080fd5b506103b960048036038101906103b4919061217c565b6113a1565b005b3480156103c757600080fd5b506103d06115ed565b005b3480156103de57600080fd5b506103f960048036038101906103f4919061214f565b6115f8565b005b34801561040757600080fd5b50610422600480360381019061041d919061221b565b611616565b005b34801561043057600080fd5b5061043961178b565b604051610446919061238e565b60405180910390f35b34801561045b57600080fd5b506104766004803603810190610471919061214f565b611832565b005b34801561048457600080fd5b5061049f600480360381019061049a919061221b565b61184f565b005b60008060006060600080606087806004600083815260200190815260200160002060000154146104d057600080fd5b600460008a8152602001908152602001600020600001549750600460008a815260200190815260200160002060010160009054906101000a900473ffffffffffffffffffffffffffffffffffffffff169650600460008a815260200190815260200160002060020160009054906101000a900473ffffffffffffffffffffffffffffffffffffffff169550600460008a8152602001908152602001600020600301805461057c90612735565b80601f01602080910402602001604051908101604052809291908181526020018280546105a890612735565b80156105f55780601f106105ca576101008083540402835291602001916105f5565b820191906000526020600020905b8154815290600101906020018083116105d857829003601f168201915b50505050509450600460008a8152602001908152602001600020600401549350600460008a815260200190815260200160002060050160009054906101000a900460ff169250600460008a8152602001908152602001600020600601805461065c90612735565b80601f016020809104026020016040519081016040528092919081815260200182805461068890612735565b80156106d55780601f106106aa576101008083540402835291602001916106d5565b820191906000526020600020905b8154815290600101906020018083116106b857829003601f168201915b5050505050915050919395979092949650565b808060086000838152602001908152602001600020600001541461070b57600080fd5b61071433611384565b61071d57600080fd5b8160016003811115610732576107316127c7565b5b6008600083815260200190815260200160002060070160009054906101000a900460ff166003811115610768576107676127c7565b5b1461077257600080fd5b6008600084815260200190815260200160002060070160019054906101000a900473ffffffffffffffffffffffffffffffffffffffff168073ffffffffffffffffffffffffffffffffffffffff163373ffffffffffffffffffffffffffffffffffffffff16146107e157600080fd5b60026008600086815260200190815260200160002060070160006101000a81548160ff0219169083600381111561081b5761081a6127c7565b5b02179055507fb473df516d0203fc87550c7734ca4743f4cf738e3a5550f72ba08fd75ef4f8e38460405161084f91906123cb565b60405180910390a150505050565b600080600060606000806000606060008060008b8060086000838152602001908152602001600020600001541461089357600080fd5b600860008e8152602001908152602001600020600001549b50600860008e815260200190815260200160002060010160009054906101000a900473ffffffffffffffffffffffffffffffffffffffff169a50600860008e8152602001908152602001600020600201549950600860008e8152602001908152602001600020600301805461091f90612735565b80601f016020809104026020016040519081016040528092919081815260200182805461094b90612735565b80156109985780601f1061096d57610100808354040283529160200191610998565b820191906000526020600020905b81548152906001019060200180831161097b57829003601f168201915b50505050509850600860008e8152602001908152602001600020600401549750600860008e8152602001908152602001600020600501549650600860008e8152602001908152602001600020600601549550610a16600860008f815260200190815260200160002060070160009054906101000a900460ff16611a70565b9450600860008e815260200190815260200160002060070160019054906101000a900473ffffffffffffffffffffffffffffffffffffffff169350600860008e815260200190815260200160002060080160009054906101000a900473ffffffffffffffffffffffffffffffffffffffff169250600860008e815260200190815260200160002060080160149054906101000a900460ff1691505091939597999b90929496989a50565b6000610ad6826002611c5790919063ffffffff16565b9050919050565b610ae5610c3c565b610aee57600080fd5b6000610b00610afb610c13565b611ce9565b90508073ffffffffffffffffffffffffffffffffffffffff16ff5b610b2433611cf3565b565b610b2f33611384565b610b3857600080fd5b610b4181611d4d565b50565b610b4c610c3c565b610b5557600080fd5b600073ffffffffffffffffffffffffffffffffffffffff1660008054906101000a900473ffffffffffffffffffffffffffffffffffffffff1673ffffffffffffffffffffffffffffffffffffffff167f5c486528ec3e3f0ea91181cff8116f02bfa350e03b8b6f12e00765adbb5af85c60405160405180910390a360008060006101000a81548173ffffffffffffffffffffffffffffffffffffffff021916908373ffffffffffffffffffffffffffffffffffffffff160217905550565b60008060009054906101000a900473ffffffffffffffffffffffffffffffffffffffff16905090565b60008060009054906101000a900473ffffffffffffffffffffffffffffffffffffffff1673ffffffffffffffffffffffffffffffffffffffff163373ffffffffffffffffffffffffffffffffffffffff1614905090565b6060610c9e33610ac0565b610ca757600080fd5b600960003373ffffffffffffffffffffffffffffffffffffffff1673ffffffffffffffffffffffffffffffffffffffff168152602001908152602001600020805480602002602001604051908101604052809291908181526020018280548015610d3057602002820191906000526020600020905b815481526020019060010190808311610d1c575b5050505050905090565b6060610d4533611384565b610d4e57600080fd5b600660003373ffffffffffffffffffffffffffffffffffffffff1673ffffffffffffffffffffffffffffffffffffffff168152602001908152602001600020805480602002602001604051908101604052809291908181526020018280548015610dd757602002820191906000526020600020905b815481526020019060010190808311610dc3575b5050505050905090565b610dea33610ac0565b610df357600080fd5b806001811015610e0257600080fd5b8280600460008381526020019081526020016000206000015414610e2557600080fd5b826004600086815260200190815260200160002060040154610e47919061261d565b80341015610e5457600080fd5b836004600087815260200190815260200160002060040154610e76919061261d565b3360006007549050604051806101600160405280828152602001610e98610c13565b73ffffffffffffffffffffffffffffffffffffffff168152602001898152602001600460008b81526020019081526020016000206003018054610eda90612735565b80601f0160208091040260200160405190810160405280929190818152602001828054610f0690612735565b8015610f535780601f10610f2857610100808354040283529160200191610f53565b820191906000526020600020905b815481529060010190602001808311610f3657829003601f168201915b50505050508152602001888152602001600460008b815260200190815260200160002060040154815260200188600460008c815260200190815260200160002060040154610fa1919061261d565b815260200160006003811115610fba57610fb96127c7565b5b8152602001600460008b815260200190815260200160002060020160009054906101000a900473ffffffffffffffffffffffffffffffffffffffff1673ffffffffffffffffffffffffffffffffffffffff1681526020013373ffffffffffffffffffffffffffffffffffffffff16815260200160011515815250600860008381526020019081526020016000206000820151816000015560208201518160010160006101000a81548173ffffffffffffffffffffffffffffffffffffffff021916908373ffffffffffffffffffffffffffffffffffffffff1602179055506040820151816002015560608201518160030190805190602001906110be929190611ffd565b506080820151816004015560a0820151816005015560c0820151816006015560e08201518160070160006101000a81548160ff02191690836003811115611108576111076127c7565b5b02179055506101008201518160070160016101000a81548173ffffffffffffffffffffffffffffffffffffffff021916908373ffffffffffffffffffffffffffffffffffffffff1602179055506101208201518160080160006101000a81548173ffffffffffffffffffffffffffffffffffffffff021916908373ffffffffffffffffffffffffffffffffffffffff1602179055506101408201518160080160146101000a81548160ff0219169083151502179055509050506000611202600460008b815260200190815260200160002060020160009054906101000a900473ffffffffffffffffffffffffffffffffffffffff16611ce9565b90508073ffffffffffffffffffffffffffffffffffffffff166108fc60086000858152602001908152602001600020600501549081150290604051600060405180830381858888f19350505050158015611260573d6000803e3d6000fd5b50600960003373ffffffffffffffffffffffffffffffffffffffff1673ffffffffffffffffffffffffffffffffffffffff16815260200190815260200160002082908060018154018082558091505060019003906000526020600020016000909190919091505560016007546112d691906125c7565b6007819055507f7e82078c35b6665b9d320ebeaa6c266960fad5b802c5558cf7df60c4769af95b8260405161130b91906123cb565b60405180910390a15050600082346113239190612677565b9050600061133083611ce9565b90508073ffffffffffffffffffffffffffffffffffffffff166108fc839081150290604051600060405180830381858888f19350505050158015611378573d6000803e3d6000fd5b50505050505050505050565b600061139a826001611c5790919063ffffffff16565b9050919050565b6113aa33611384565b6113b357600080fd5b600060035490506040518060e001604052808281526020016113d3610c13565b73ffffffffffffffffffffffffffffffffffffffff1681526020013373ffffffffffffffffffffffffffffffffffffffff168152602001868152602001858152602001841515815260200183815250600460008381526020019081526020016000206000820151816000015560208201518160010160006101000a81548173ffffffffffffffffffffffffffffffffffffffff021916908373ffffffffffffffffffffffffffffffffffffffff16021790555060408201518160020160006101000a81548173ffffffffffffffffffffffffffffffffffffffff021916908373ffffffffffffffffffffffffffffffffffffffff16021790555060608201518160030190805190602001906114e9929190611ffd565b506080820151816004015560a08201518160050160006101000a81548160ff02191690831515021790555060c0820151816006019080519060200190611530929190611ffd565b50905050600560003373ffffffffffffffffffffffffffffffffffffffff1673ffffffffffffffffffffffffffffffffffffffff16815260200190815260200160002081908060018154018082558091505060019003906000526020600020016000909190919091505560016003546115a991906125c7565b6003819055507f686a682458387c4aa3c29f3d512dd32a9007b27cb3a118aa23789a5ccdba34d0816040516115de91906123cb565b60405180910390a15050505050565b6115f633611da7565b565b61160133610ac0565b61160a57600080fd5b61161381611e01565b50565b808060086000838152602001908152602001600020600001541461163957600080fd5b61164233611384565b61164b57600080fd5b81600060038111156116605761165f6127c7565b5b6008600083815260200190815260200160002060070160009054906101000a900460ff166003811115611696576116956127c7565b5b146116a057600080fd5b6008600084815260200190815260200160002060070160019054906101000a900473ffffffffffffffffffffffffffffffffffffffff168073ffffffffffffffffffffffffffffffffffffffff163373ffffffffffffffffffffffffffffffffffffffff161461170f57600080fd5b60016008600086815260200190815260200160002060070160006101000a81548160ff02191690836003811115611749576117486127c7565b5b02179055507f736df6ff290b39e5e680dc14918640d5a76491436bf41675828ca4a543a15da08460405161177d91906123cb565b60405180910390a150505050565b606061179633611384565b61179f57600080fd5b600560003373ffffffffffffffffffffffffffffffffffffffff1673ffffffffffffffffffffffffffffffffffffffff16815260200190815260200160002080548060200260200160405190810160405280929190818152602001828054801561182857602002820191906000526020600020905b815481526020019060010190808311611814575b5050505050905090565b61183a610c3c565b61184357600080fd5b61184c81611e5b565b50565b808060086000838152602001908152602001600020600001541461187257600080fd5b61187b33610ac0565b61188457600080fd5b8160026003811115611899576118986127c7565b5b6008600083815260200190815260200160002060070160009054906101000a900460ff1660038111156118cf576118ce6127c7565b5b146118d957600080fd5b6008600084815260200190815260200160002060080160009054906101000a900473ffffffffffffffffffffffffffffffffffffffff168073ffffffffffffffffffffffffffffffffffffffff163373ffffffffffffffffffffffffffffffffffffffff161461194857600080fd5b60036008600086815260200190815260200160002060070160006101000a81548160ff02191690836003811115611982576119816127c7565b5b02179055507fe21fe02c1589242b30be2057f54fd54b7ddc463695d19ffdb54f9ebb0584f24a846040516119b691906123cb565b60405180910390a150505050565b600073ffffffffffffffffffffffffffffffffffffffff168173ffffffffffffffffffffffffffffffffffffffff1614156119fe57600080fd5b611a088282611c57565b15611a1257600080fd5b60018260000160008373ffffffffffffffffffffffffffffffffffffffff1673ffffffffffffffffffffffffffffffffffffffff16815260200190815260200160002060006101000a81548160ff0219169083151502179055505050565b606060006003811115611a8657611a856127c7565b5b826003811115611a9957611a986127c7565b5b1415611adc576040518060400160405280600781526020017f43726561746564000000000000000000000000000000000000000000000000008152509050611c52565b60016003811115611af057611aef6127c7565b5b826003811115611b0357611b026127c7565b5b1415611b46576040518060400160405280600781526020017f4f6e676f696e67000000000000000000000000000000000000000000000000008152509050611c52565b60026003811115611b5a57611b596127c7565b5b826003811115611b6d57611b6c6127c7565b5b1415611bb0576040518060400160405280600e81526020017f5265616479466f725069636b75700000000000000000000000000000000000008152509050611c52565b600380811115611bc357611bc26127c7565b5b826003811115611bd657611bd56127c7565b5b1415611c19576040518060400160405280600981526020017f44656c69766572656400000000000000000000000000000000000000000000008152509050611c52565b6040518060400160405280600e81526020017f496e76616c69642053746174757300000000000000000000000000000000000081525090505b919050565b60008073ffffffffffffffffffffffffffffffffffffffff168273ffffffffffffffffffffffffffffffffffffffff161415611c9257600080fd5b8260000160008373ffffffffffffffffffffffffffffffffffffffff1673ffffffffffffffffffffffffffffffffffffffff16815260200190815260200160002060009054906101000a900460ff16905092915050565b6000819050919050565b611d07816001611f5290919063ffffffff16565b8073ffffffffffffffffffffffffffffffffffffffff167f842a0c36aded642f477dfd0dc633355e99cc660741c20a3693f73b7a2b93760860405160405180910390a250565b611d618160016119c490919063ffffffff16565b8073ffffffffffffffffffffffffffffffffffffffff167feaedad5bc5c69671b51a22cd12e2a8eb29d059d6872181c52a79073a38b1ba4960405160405180910390a250565b611dbb816002611f5290919063ffffffff16565b8073ffffffffffffffffffffffffffffffffffffffff167fb4c88a9c5cd906354abdd1cc29e4f94c6c4de90754fb80ce51e6a33417bc81b660405160405180910390a250565b611e158160026119c490919063ffffffff16565b8073ffffffffffffffffffffffffffffffffffffffff167fcd118a02bd36f224f6f1b93812f78d2bbc2c2dc1bc0f60c176e3b4fe09f1483f60405160405180910390a250565b600073ffffffffffffffffffffffffffffffffffffffff168173ffffffffffffffffffffffffffffffffffffffff161415611e9557600080fd5b8073ffffffffffffffffffffffffffffffffffffffff1660008054906101000a900473ffffffffffffffffffffffffffffffffffffffff1673ffffffffffffffffffffffffffffffffffffffff167f5c486528ec3e3f0ea91181cff8116f02bfa350e03b8b6f12e00765adbb5af85c60405160405180910390a3806000806101000a81548173ffffffffffffffffffffffffffffffffffffffff021916908373ffffffffffffffffffffffffffffffffffffffff16021790555050565b600073ffffffffffffffffffffffffffffffffffffffff168173ffffffffffffffffffffffffffffffffffffffff161415611f8c57600080fd5b611f968282611c57565b611f9f57600080fd5b60008260000160008373ffffffffffffffffffffffffffffffffffffffff1673ffffffffffffffffffffffffffffffffffffffff16815260200190815260200160002060006101000a81548160ff0219169083151502179055505050565b82805461200990612735565b90600052602060002090601f01602090048101928261202b5760008555612072565b82601f1061204457805160ff1916838001178555612072565b82800160010185558215612072579182015b82811115612071578251825591602001919060010190612056565b5b50905061207f9190612083565b5090565b5b8082111561209c576000816000905550600101612084565b5090565b60006120b36120ae84612541565b61251c565b9050828152602081018484840111156120cf576120ce612859565b5b6120da8482856126f3565b509392505050565b6000813590506120f181612879565b92915050565b60008135905061210681612890565b92915050565b600082601f83011261212157612120612854565b5b81356121318482602086016120a0565b91505092915050565b600081359050612149816128a7565b92915050565b60006020828403121561216557612164612863565b5b6000612173848285016120e2565b91505092915050565b6000806000806080858703121561219657612195612863565b5b600085013567ffffffffffffffff8111156121b4576121b361285e565b5b6121c08782880161210c565b94505060206121d18782880161213a565b93505060406121e2878288016120f7565b925050606085013567ffffffffffffffff8111156122035761220261285e565b5b61220f8782880161210c565b91505092959194509250565b60006020828403121561223157612230612863565b5b600061223f8482850161213a565b91505092915050565b6000806040838503121561225f5761225e612863565b5b600061226d8582860161213a565b925050602061227e8582860161213a565b9150509250929050565b60006122948383612355565b60208301905092915050565b6122a9816126ab565b82525050565b60006122ba82612582565b6122c481856125a5565b93506122cf83612572565b8060005b838110156123005781516122e78882612288565b97506122f283612598565b9250506001810190506122d3565b5085935050505092915050565b612316816126bd565b82525050565b60006123278261258d565b61233181856125b6565b9350612341818560208601612702565b61234a81612868565b840191505092915050565b61235e816126e9565b82525050565b61236d816126e9565b82525050565b600060208201905061238860008301846122a0565b92915050565b600060208201905081810360008301526123a881846122af565b905092915050565b60006020820190506123c5600083018461230d565b92915050565b60006020820190506123e06000830184612364565b92915050565b600060e0820190506123fb600083018a612364565b61240860208301896122a0565b61241560408301886122a0565b8181036060830152612427818761231c565b90506124366080830186612364565b61244360a083018561230d565b81810360c0830152612455818461231c565b905098975050505050505050565b600061016082019050612479600083018e612364565b612486602083018d6122a0565b612493604083018c612364565b81810360608301526124a5818b61231c565b90506124b4608083018a612364565b6124c160a0830189612364565b6124ce60c0830188612364565b81810360e08301526124e0818761231c565b90506124f06101008301866122a0565b6124fe6101208301856122a0565b61250c61014083018461230d565b9c9b505050505050505050505050565b6000612526612537565b90506125328282612767565b919050565b6000604051905090565b600067ffffffffffffffff82111561255c5761255b612825565b5b61256582612868565b9050602081019050919050565b6000819050602082019050919050565b600081519050919050565b600081519050919050565b6000602082019050919050565b600082825260208201905092915050565b600082825260208201905092915050565b60006125d2826126e9565b91506125dd836126e9565b9250827fffffffffffffffffffffffffffffffffffffffffffffffffffffffffffffffff0382111561261257612611612798565b5b828201905092915050565b6000612628826126e9565b9150612633836126e9565b9250817fffffffffffffffffffffffffffffffffffffffffffffffffffffffffffffffff048311821515161561266c5761266b612798565b5b828202905092915050565b6000612682826126e9565b915061268d836126e9565b9250828210156126a05761269f612798565b5b828203905092915050565b60006126b6826126c9565b9050919050565b60008115159050919050565b600073ffffffffffffffffffffffffffffffffffffffff82169050919050565b6000819050919050565b82818337600083830152505050565b60005b83811015612720578082015181840152602081019050612705565b8381111561272f576000848401525b50505050565b6000600282049050600182168061274d57607f821691505b60208210811415612761576127606127f6565b5b50919050565b61277082612868565b810181811067ffffffffffffffff8211171561278f5761278e612825565b5b80604052505050565b7f4e487b7100000000000000000000000000000000000000000000000000000000600052601160045260246000fd5b7f4e487b7100000000000000000000000000000000000000000000000000000000600052602160045260246000fd5b7f4e487b7100000000000000000000000000000000000000000000000000000000600052602260045260246000fd5b7f4e487b7100000000000000000000000000000000000000000000000000000000600052604160045260246000fd5b600080fd5b600080fd5b600080fd5b600080fd5b6000601f19601f8301169050919050565b612882816126ab565b811461288d57600080fd5b50565b612899816126bd565b81146128a457600080fd5b50565b6128b0816126e9565b81146128bb57600080fd5b5056fea2646970667358221220c8fe827bf59f81dfe6ccb9c89ea5f00bc720ac69fb92239174fec89a78a786a664736f6c63430008060033",
  "immutableReferences": {},
  "source": "// SPDX-License-Identifier: GPL-3.0\npragma solidity >=0.4.22 <0.9.0;\n\nimport \"../core/Ownable.sol\";\nimport \"../accesscontrol/CompanyRole.sol\";\nimport \"../accesscontrol/CustomerRole.sol\";\n\ncontract SupplyChain is Ownable, CompanyRole, CustomerRole {\n\n\tuint cakeIDCount;\n\t\n  mapping (uint => Cake) availableCakes;\n  mapping (address => uint []) companyCakes;\n  mapping (address => uint []) companyAssignedOrders;\n  \n  struct Cake {\n    uint    cakeID;\n    address ownerID;\n\t  address companyID;\n    string  cakeName;\n\t\tuint\t\tcakePrice;\n\t\tbool\t\tonSale;\n    string  imageUrl;\n  }\n\n  event NewAvailableCake(uint cakeID);\n\n  uint orderIDCount;\n  \n  mapping (uint => Order) orders;\n  mapping (address => uint []) customerOrders;\n\n  enum State { \n    Created,\n    Ongoing,\n    ReadyForPickup,\n    Delivered\n\t}\n\n  State constant defaultState = State.Created;\n\n  struct Order {\n    uint    orderID;\n    address ownerID;\n    uint    cakeID;\n\t  string  cakeName;\n    uint    quantity;\n    uint    cakePrice;\n    uint    totalPrice;\n    State   orderState;\n    address companyID;\n    address customerID;\n\t\tbool paid;\n  }\n\n  event OrderCreated(uint orderID);\n  event OrderOngoing(uint orderID);\n  event OrderReadyForPickup(uint orderID);\n  event OrderDelivered(uint orderID);\n\n  modifier verifyCaller(address _address) {\n    require(msg.sender == _address); \n    _;\n  }\n\n  modifier paidEnough(uint _price) { \n    require(msg.value >= _price); \n    _;\n  }\n  \n  modifier checkValue(uint _price, address _consumerID) {\n    _;\n    uint amountToReturn = msg.value - _price;\n    address payable consumerAddressPayable = _make_payable(_consumerID);\n    consumerAddressPayable.transfer(amountToReturn);\n  }\n\n  modifier cakeAvailable(uint _cakeID) {\n\t\trequire(availableCakes[_cakeID].cakeID == _cakeID);\n    _;\n  }\n\n  modifier orderExists(uint _orderID) {\n\t\trequire(orders[_orderID].orderID == _orderID);\n    _;\n  }\n\n  modifier created(uint _orderID) {\n    require(orders[_orderID].orderState == State.Created);\n    _;\n  }\n\n  modifier ongoing(uint _orderID) {\n\t\trequire(orders[_orderID].orderState == State.Ongoing);\n    _;\n  }\n\n  modifier readyForPickup(uint _orderID) {\n\t\trequire(orders[_orderID].orderState == State.ReadyForPickup);\n    _;\n  }\n\n  modifier delivered(uint _orderID) {\n\t\trequire(orders[_orderID].orderState == State.Delivered);\n    _;\n  }\n\n  modifier minQuantity(uint _quantity) {\n\t\trequire(_quantity >= 1);\n    _;\n  }\n\n  constructor() payable {\n    orderIDCount = 1;\n\t\tcakeIDCount = 1;\n  }\n\n  function _make_payable(address x) internal pure returns (address payable) {\n      return payable(x);\n  }\n\n  function kill() public onlyOwner {\n    address payable ownerAddressPayable = _make_payable(owner());\n    selfdestruct(ownerAddressPayable);\n  }\n\n  function addAvailableCake(string memory _cakeName, uint _cakePrice,\n    bool _onSale, string memory _imageUrl) public onlyCompany\n  {\n\t\tuint _cakeID = cakeIDCount;\n\t\tavailableCakes[_cakeID] = Cake({\n      cakeID: _cakeID,\n    \townerID: owner(),\n\t\t  companyID: msg.sender,\n    \tcakeName: _cakeName,\n\t\t\tcakePrice: _cakePrice,\n\t\t\tonSale: _onSale,\n      imageUrl: _imageUrl\n\t\t});\n    companyCakes[msg.sender].push(_cakeID);\n\n    cakeIDCount = cakeIDCount + 1;\n    emit NewAvailableCake(_cakeID);\n  }\n\n  function makeOrder(uint _cakeID, uint _quantity) public payable\n\tonlyCustomer\n  minQuantity(_quantity)\n\tcakeAvailable(_cakeID)\n\tpaidEnough(availableCakes[_cakeID].cakePrice*_quantity)\n\tcheckValue(availableCakes[_cakeID].cakePrice*_quantity, msg.sender)\n  {\n\t\tuint _orderID = orderIDCount;\n\t\torders[_orderID] = Order({\n\t    orderID: _orderID,\n\t\t\townerID: owner(),\n\t\t\tcakeID: _cakeID,\n\t\t\tcakeName: availableCakes[_cakeID].cakeName,\n      quantity: _quantity,\n\t\t\tcakePrice: availableCakes[_cakeID].cakePrice,\n      totalPrice: availableCakes[_cakeID].cakePrice*_quantity,\n\t\t\torderState: defaultState,\n\t\t\tcompanyID: availableCakes[_cakeID].companyID,\n\t\t\tcustomerID: msg.sender,\n\t\t\tpaid: true\n\t\t});\n\n    address payable companyAddressPayable = _make_payable(availableCakes[_cakeID].companyID);\n    companyAddressPayable.transfer(orders[_orderID].cakePrice);\n\n    customerOrders[msg.sender].push(_orderID);\n\n    orderIDCount = orderIDCount + 1;\n    emit OrderCreated(_orderID);\n  }\n\n  function startBakingCake(uint _orderID) public\n\torderExists(_orderID)\n  onlyCompany\n  created(_orderID)\n  verifyCaller(orders[_orderID].companyID)\n  {\n\t\torders[_orderID].orderState = State.Ongoing;\n    emit OrderOngoing(_orderID);\n  }\n\n  function prepareForPickup(uint _orderID) public\n\torderExists(_orderID)\n\tonlyCompany\n  ongoing(_orderID)\n  verifyCaller(orders[_orderID].companyID)\n  {\n\t\torders[_orderID].orderState = State.ReadyForPickup;\n    emit OrderReadyForPickup(_orderID); \n  }\n\n  function pickupCake(uint _orderID) public\n\torderExists(_orderID)\n\tonlyCustomer\n  readyForPickup(_orderID)\n  verifyCaller(orders[_orderID].customerID)\n  {\n\t\torders[_orderID].orderState = State.Delivered;\n    emit OrderDelivered(_orderID);\n  }\n\n  function fetchCake(uint _cakeID) public view cakeAvailable(_cakeID) returns (\n    uint cakeID,\n    address ownerID,\n\t  address companyID,\n    string memory cakeName,\n\t\tuint cakePrice,\n\t\tbool onSale,\n    string memory imageUrl\n  )\n  {\n    cakeID = availableCakes[_cakeID].cakeID;\n\t\townerID =\tavailableCakes[_cakeID].ownerID;\n\t\tcompanyID =\tavailableCakes[_cakeID].companyID;\n\t\tcakeName = availableCakes[_cakeID].cakeName;\n\t\tcakePrice = availableCakes[_cakeID].cakePrice;\n\t\tonSale = availableCakes[_cakeID].onSale;\n    imageUrl = availableCakes[_cakeID].imageUrl;\n\n    return (\n    \tcakeID,\n\t\t\townerID,\n\t\t\tcompanyID,\n\t\t\tcakeName,\n\t\t\tcakePrice,\n\t\t\tonSale,\n      imageUrl\n\t\t);\n  }\n\n  function fetchCompanyCakes() public view onlyCompany returns (uint [] memory)\n  {\n    return companyCakes[msg.sender];\n  }\n\n  function orderStateToString(State _orderState) internal pure returns (\n    string memory)\n  { \n    if (_orderState == State.Created) return \"Created\";\n    if (_orderState == State.Ongoing) return \"Ongoing\";\n    if (_orderState == State.ReadyForPickup) return \"ReadyForPickup\";\n    if (_orderState == State.Delivered) return \"Delivered\";\n\n    return \"Invalid Status\";\n  }\n\n  function fetchOrder(uint _orderID) public view orderExists(_orderID) returns (\n    uint orderID,\n    address ownerID,\n    uint cakeID,\n    string memory cakeName,\n    uint quantity,\n    uint cakePrice,\n    uint totalPrice,\n    string memory orderState,\n    address companyID,\n    address customerID,\n\t\tbool paid\n  )\n  {\n    orderID =\torders[_orderID].orderID;\n\t\townerID =\torders[_orderID].ownerID;\n\t\tcakeID = orders[_orderID].cakeID;\n\t\tcakeName = orders[_orderID].cakeName;\n    quantity = orders[_orderID].quantity;\n\t\tcakePrice = orders[_orderID].cakePrice;\n\t\ttotalPrice = orders[_orderID].totalPrice;\n\t\torderState = orderStateToString(orders[_orderID].orderState);\n\t\tcompanyID = orders[_orderID].companyID;\n\t\tcustomerID = orders[_orderID].customerID;\n\t\tpaid = orders[_orderID].paid;\n    \n\t\treturn (\n      orderID,\n      ownerID,\n      cakeID,\n      cakeName,\n      quantity,\n      cakePrice,\n      totalPrice,\n      orderState,\n      companyID,\n      customerID,\n      paid\n\t\t);\n  }\n\n  function fetchCustomerOrders() public view onlyCustomer returns (uint [] memory)\n  {\n    return customerOrders[msg.sender];\n  }\n\n  function fetchCompanyAssignedOrders() public view onlyCompany returns (uint [] memory)\n  {\n    return companyAssignedOrders[msg.sender];\n  }\n}\n",
  "sourcePath": "/Users/mac13/Documents/Studies/Udacity/Blockchain Developer ND/4. Blockchain Architecture/Submission/la-boulangerie/contracts/base/SupplyChain.sol",
  "compiler": {
    "name": "solc",
    "version": "0.8.6+commit.11564f7e.Emscripten.clang"
  },
  "schemaVersion": "3.4.1",
  "updatedAt": "2021-07-31T20:20:48.196Z",
  "networkType": "ethereum",
  "devdoc": {
    "kind": "dev",
    "methods": {},
    "version": 1
  },
  "userdoc": {
    "kind": "user",
    "methods": {},
    "version": 1
  }
}